:100000000C942A000C9400000C9400000C94000046
:100010000C9400000C9400000C9400000C94000060
:100020000C9400000C9400000C9400000C94000050
:100030000C9400000C9400000C9400000C94000040
:100040000C9400000C9400000C9400000C94000030
:100050000C940000F894EE27ECBBF1E0FBBFEBBF83
:10006000E5BF8DE0A2E0BB27ED938A95E9F780E03C
:1000700098E0A0E6ED930197E9F7EFE5EDBFE8E042
:10008000EEBFC0E6D2E00C944500EFEFEABBE7BB61
:1000900008E813E10024001601062CF4EEEFCDD0A1
:1000A00001501040F7CF08E813E1002400160106C4
:1000B00044F4EEEFEBBBEDEFC8D0BFD001501040E1
:1000C000F4CF08E813E100240016010654F4EEEF23
:1000D000EBBBEBEFBAD0EBBBECEFBCD00150104068
:1000E000F2CF08E813E100240016010654F4EEEF05
:1000F000EBBBE7EFAAD0EBBBE8EFACD00150104070
:10010000F2CF08E813E100240016010654F4EEEFE4
:10011000EBBBEFEE9AD0EBBBE0EF9CD00150104070
:10012000F2CF08E813E100240016010654F4EEEFC4
:10013000EBBBEEED8AD0EBBBE1EE8CD00150104072
:10014000F2CF08E813E100240016010654F4EEEFA4
:10015000EBBBEDEB7AD0EBBBE3EC7CD00150104075
:10016000F2CF08E813E100240016010654F4EEEF84
:10017000EBBBEBE76AD0EBBBE7E86CD0015010407B
:10018000F2CF08E813E100240016010654F4EEEF64
:10019000EBBBE7EF5AD0EBBBEFE05CD00150104077
:1001A000F2CF08E813E100240016010654F4EEEF44
:1001B000EBBBEFEE4AD0EBBBEFE14CD0015010406F
:1001C000F2CF08E813E100240016010654F4EEEF24
:1001D000EBBBEFED3AD0EBBBEFE33CD0015010406E
:1001E000F2CF08E813E100240016010654F4EEEF04
:1001F000EBBBEFEB2AD0EBBBEFE72CD0015010406C
:10020000F2CF08E813E10024001601063CF4EEEFFB
:10021000EBBBEFE71FD001501040F5CF08E813E12A
:100220000024001601063CF4E0E0EBBBEFEFE8BB76
:1002300001501040F5CF2CCFFFCFEBBBEEEFE8BB6A
:10024000E0E0EBBBEFEFE8BB0895E8BBEFEFE8BB06
:10025000E1E10895E8BBE0E0EBBBEFEFE8BB089518
:00000001FF
